{
  "abi": [
    {
      "inputs": [],
      "stateMutability": "nonpayable",
      "type": "constructor"
    },
    {
      "inputs": [
        {
          "internalType": "uint256",
          "name": "amount",
          "type": "uint256"
        }
      ],
      "name": "createProxy",
      "outputs": [
        {
          "internalType": "address[]",
          "name": "",
          "type": "address[]"
        }
      ],
      "stateMutability": "nonpayable",
      "type": "function"
    },
    {
      "inputs": [
        {
          "internalType": "uint256",
          "name": "_value",
          "type": "uint256"
        },
        {
          "internalType": "bytes",
          "name": "_payload",
          "type": "bytes"
        },
        {
          "internalType": "address[]",
          "name": "proxies",
          "type": "address[]"
        },
        {
          "internalType": "uint256",
          "name": "_targetBlock",
          "type": "uint256"
        },
        {
          "internalType": "uint256",
          "name": "_toCoinbase",
          "type": "uint256"
        }
      ],
      "name": "execute",
      "outputs": [],
      "stateMutability": "payable",
      "type": "function"
    }
  ],
  "bytecode": {
    "object": "0x60a060405234801561001057600080fd5b50336080526080516106e7610036600039600081816086015261017901526106e76000f3fe6080604052600436106100295760003560e01c8063b837ba801461002e578063e6a9d6e314610064575b600080fd5b34801561003a57600080fd5b5061004e6100493660046102f3565b610079565b60405161005b919061030c565b60405180910390f35b6100776100723660046103a5565b61016e565b005b6060336001600160a01b037f000000000000000000000000000000000000000000000000000000000000000016146100b057600080fd5b60008267ffffffffffffffff8111156100cb576100cb61045c565b6040519080825280602002602001820160405280156100f4578160200160208202803683370190505b50905060005b838110156101675760405161010e906102e6565b604051809103906000f08015801561012a573d6000803e3d6000fd5b5082828151811061013d5761013d610472565b6001600160a01b03909216602092830291909101909101528061015f81610488565b9150506100fa565b5092915050565b336001600160a01b037f000000000000000000000000000000000000000000000000000000000000000016146101a357600080fd5b438214806101af575081155b6101b857600080fd5b8260005b81811015610263576000808787848181106101d9576101d9610472565b90506020020160208101906101ee91906104af565b6001600160a01b03168b8b8b6040516102089291906104df565b60006040518083038185875af1925050503d8060008114610245576040519150601f19603f3d011682016040523d82523d6000602084013e61024a565b606091505b50915091508161025957600080fd5b50506001016101bc565b506000821180156102745750814710155b156102a857604051419083156108fc029084906000818181858888f193505050501580156102a6573d6000803e3d6000fd5b505b47156102dc5760405133904780156108fc02916000818181858888f193505050501580156102da573d6000803e3d6000fd5b505b5050505050505050565b6101c2806104f083390190565b60006020828403121561030557600080fd5b5035919050565b6020808252825182820181905260009190848201906040850190845b8181101561034d5783516001600160a01b031683529284019291840191600101610328565b50909695505050505050565b60008083601f84011261036b57600080fd5b50813567ffffffffffffffff81111561038357600080fd5b6020830191508360208260051b850101111561039e57600080fd5b9250929050565b600080600080600080600060a0888a0312156103c057600080fd5b87359650602088013567ffffffffffffffff808211156103df57600080fd5b818a0191508a601f8301126103f357600080fd5b81358181111561040257600080fd5b8b602082850101111561041457600080fd5b6020830198508097505060408a013591508082111561043257600080fd5b5061043f8a828b01610359565b989b979a5095989597966060870135966080013595509350505050565b634e487b7160e01b600052604160045260246000fd5b634e487b7160e01b600052603260045260246000fd5b6000600182016104a857634e487b7160e01b600052601160045260246000fd5b5060010190565b6000602082840312156104c157600080fd5b81356001600160a01b03811681146104d857600080fd5b9392505050565b818382376000910190815291905056fe608060405234801561001057600080fd5b506101a2806100206000396000f3fe6080604052600436106100225760003560e01c8063150b7a021461005857610029565b3661002957005b6000604051601f193601806020833760206040828486355af49150503d82833e808015610054573d83f35b8283fd5b34801561006457600080fd5b506100786100733660046100d1565b610095565b6040516001600160e01b0319909116815260200160405180910390f35b60008054196100a357836000555b50630a85bd0160e11b95945050505050565b80356001600160a01b03811681146100cc57600080fd5b919050565b6000806000806000608086880312156100e957600080fd5b6100f2866100b5565b9450610100602087016100b5565b935060408601359250606086013567ffffffffffffffff8082111561012457600080fd5b818801915088601f83011261013857600080fd5b81358181111561014757600080fd5b89602082850101111561015957600080fd5b969995985093965060200194939250505056fea26469706673582212206f6fb0f36c339315a33c64abed5c7820c1a4af20b39c2fd5f24fb7174e4062ba64736f6c634300080e0033a264697066735822122060aa7745e54b55dfdc29ca2461f26365ae785d20af3b65196ab04e49a7c555f464736f6c634300080e0033",
    "linkReferences": {}
  },
  "methodIdentifiers": {
    "createProxy(uint256)": "b837ba80",
    "execute(uint256,bytes,address[],uint256,uint256)": "e6a9d6e3"
  },
  "id": 8
}