{
  "abi": [
    {
      "inputs": [
        {
          "internalType": "address",
          "name": "_target",
          "type": "address"
        },
        {
          "internalType": "bytes",
          "name": "_payload",
          "type": "bytes"
        },
        {
          "internalType": "address",
          "name": "_owner",
          "type": "address"
        }
      ],
      "name": "execute",
      "outputs": [],
      "stateMutability": "payable",
      "type": "function"
    },
    {
      "inputs": [
        {
          "internalType": "address",
          "name": "",
          "type": "address"
        },
        {
          "internalType": "address",
          "name": "",
          "type": "address"
        },
        {
          "internalType": "uint256",
          "name": "id",
          "type": "uint256"
        },
        {
          "internalType": "bytes",
          "name": "",
          "type": "bytes"
        }
      ],
      "name": "onERC721Received",
      "outputs": [
        {
          "internalType": "bytes4",
          "name": "",
          "type": "bytes4"
        }
      ],
      "stateMutability": "nonpayable",
      "type": "function"
    }
  ],
  "bytecode": {
    "object": "0x608060405260001960005534801561001657600080fd5b506103e6806100266000396000f3fe6080604052600436106100295760003560e01c8063150b7a021461002e57806344dedcc71461006b575b600080fd5b34801561003a57600080fd5b5061004e61004936600461028d565b610080565b6040516001600160e01b0319909116815260200160405180910390f35b61007e6100793660046102fc565b6100a1565b005b600080541961008f5760008490555b50630a85bd0160e11b95945050505050565b600080856001600160a01b03163486866040516100bf929190610361565b60006040518083038185875af1925050503d80600081146100fc576040519150601f19603f3d011682016040523d82523d6000602084013e610101565b606091505b50915091508161011057600080fd5b6040516370a0823160e01b815230600482015286906000906001600160a01b038316906370a0823190602401602060405180830381865afa158015610159573d6000803e3d6000fd5b505050506040513d601f19601f8201168201806040525081019061017d9190610371565b905060005b8181101561021b57826001600160a01b03166323b872dd3088846000546101a9919061038a565b6040516001600160e01b031960e086901b1681526001600160a01b0393841660048201529290911660248301526044820152606401600060405180830381600087803b1580156101f857600080fd5b505af115801561020c573d6000803e3d6000fd5b50505050806001019050610182565b50846001600160a01b0316ff5b80356001600160a01b038116811461023f57600080fd5b919050565b60008083601f84011261025657600080fd5b50813567ffffffffffffffff81111561026e57600080fd5b60208301915083602082850101111561028657600080fd5b9250929050565b6000806000806000608086880312156102a557600080fd5b6102ae86610228565b94506102bc60208701610228565b935060408601359250606086013567ffffffffffffffff8111156102df57600080fd5b6102eb88828901610244565b969995985093965092949392505050565b6000806000806060858703121561031257600080fd5b61031b85610228565b9350602085013567ffffffffffffffff81111561033757600080fd5b61034387828801610244565b9094509250610356905060408601610228565b905092959194509250565b8183823760009101908152919050565b60006020828403121561038357600080fd5b5051919050565b600082198211156103ab57634e487b7160e01b600052601160045260246000fd5b50019056fea264697066735822122042ea1ea4cff1ac2464a83a3c5e5c6a488a022b55db717cffd212125b6b7dbe2664736f6c634300080e0033",
    "linkReferences": {}
  },
  "methodIdentifiers": {
    "execute(address,bytes,address)": "44dedcc7",
    "onERC721Received(address,address,uint256,bytes)": "150b7a02"
  },
  "id": 1
}